{
  "contractName": "DecentralizedJournal",
  "abi": [
    {
      "constant": true,
      "inputs": [
        {
          "name": "",
          "type": "uint256"
        }
      ],
      "name": "articles",
      "outputs": [
        {
          "name": "",
          "type": "uint256"
        }
      ],
      "payable": false,
      "stateMutability": "view",
      "type": "function"
    },
    {
      "constant": true,
      "inputs": [
        {
          "name": "",
          "type": "address"
        }
      ],
      "name": "usernames",
      "outputs": [
        {
          "name": "",
          "type": "string"
        }
      ],
      "payable": false,
      "stateMutability": "view",
      "type": "function"
    },
    {
      "constant": true,
      "inputs": [
        {
          "name": "",
          "type": "address"
        },
        {
          "name": "",
          "type": "uint256"
        }
      ],
      "name": "articlesByAuthor",
      "outputs": [
        {
          "name": "",
          "type": "uint256"
        }
      ],
      "payable": false,
      "stateMutability": "view",
      "type": "function"
    },
    {
      "constant": false,
      "inputs": [
        {
          "name": "username",
          "type": "string"
        }
      ],
      "name": "setUsername",
      "outputs": [],
      "payable": false,
      "stateMutability": "nonpayable",
      "type": "function"
    },
    {
      "constant": false,
      "inputs": [],
      "name": "publishArticle",
      "outputs": [],
      "payable": false,
      "stateMutability": "nonpayable",
      "type": "function"
    }
  ],
  "bytecode": "0x608060405234801561001057600080fd5b50610554806100206000396000f3fe60806040526004361061006d576000357c0100000000000000000000000000000000000000000000000000000000900463ffffffff1680638bc8ec7114610072578063ed59313a14610089578063edcfafe61461010f578063ee91877c1461015e578063f0c0ab1f14610228575b600080fd5b34801561007e57600080fd5b50610087610297565b005b34801561009557600080fd5b5061010d600480360360208110156100ac57600080fd5b81019080803590602001906401000000008111156100c957600080fd5b8201836020820111156100db57600080fd5b803590602001918460018302840111640100000000831117156100fd57600080fd5b909192939192939050505061032d565b005b34801561011b57600080fd5b506101486004803603602081101561013257600080fd5b8101908080359060200190929190505050610380565b6040518082815260200191505060405180910390f35b34801561016a57600080fd5b506101ad6004803603602081101561018157600080fd5b81019080803573ffffffffffffffffffffffffffffffffffffffff1690602001909291905050506103a3565b6040518080602001828103825283818151815260200191508051906020019080838360005b838110156101ed5780820151818401526020810190506101d2565b50505050905090810190601f16801561021a5780820380516001836020036101000a031916815260200191505b509250505060405180910390f35b34801561023457600080fd5b506102816004803603604081101561024b57600080fd5b81019080803573ffffffffffffffffffffffffffffffffffffffff16906020019092919080359060200190929190505050610453565b6040518082815260200191505060405180910390f35b60014390806001815401808255809150509060018203906000526020600020016000909192909190915055506000803373ffffffffffffffffffffffffffffffffffffffff1673ffffffffffffffffffffffffffffffffffffffff168152602001908152602001600020439080600181540180825580915050906001820390600052602060002001600090919290919091505550565b8181600260003373ffffffffffffffffffffffffffffffffffffffff1673ffffffffffffffffffffffffffffffffffffffff168152602001908152602001600020919061037b929190610483565b505050565b60018181548110151561038f57fe5b906000526020600020016000915090505481565b60026020528060005260406000206000915090508054600181600116156101000203166002900480601f01602080910402602001604051908101604052809291908181526020018280546001816001161561010002031660029004801561044b5780601f106104205761010080835404028352916020019161044b565b820191906000526020600020905b81548152906001019060200180831161042e57829003601f168201915b505050505081565b60006020528160005260406000208181548110151561046e57fe5b90600052602060002001600091509150505481565b828054600181600116156101000203166002900490600052602060002090601f016020900481019282601f106104c457803560ff19168380011785556104f2565b828001600101855582156104f2579182015b828111156104f15782358255916020019190600101906104d6565b5b5090506104ff9190610503565b5090565b61052591905b80821115610521576000816000905550600101610509565b5090565b9056fea165627a7a723058208d066d8cafb38460e9b1098ad8a64b4e0a60d52197458ae34c2fe7b43d8f4b830029",
  "source": "pragma solidity >= 0.5.0;\n\ncontract DecentralizedJournal {\n  mapping (address => uint256[]) public articlesByAuthor;\n  uint256[] public articles;\n  mapping (address => string) public usernames;\n  function setUsername(string calldata username) external {\n    usernames[msg.sender] = username;\n  }\n  function publishArticle() external {\n    articles.push(block.number);\n    articlesByAuthor[msg.sender].push(block.number);\n  }\n}",
  "sourcePath": "/home/deedee/Documents/storearticles/contracts/Store.sol",
  "compiler": {
    "name": "solc",
    "version": "0.5.0+commit.1d4f565a.Emscripten.clang"
  },
  "schemaVersion": "3.0.1",
  "updatedAt": "2019-05-09T22:46:37.799Z",
  "devdoc": {
    "methods": {}
  },
  "userdoc": {
    "methods": {}
  }
}