{
  "contractName": "Store",
  "abi": [
    {
      "constant": true,
      "inputs": [
        {
          "name": "",
          "type": "uint256"
        }
      ],
      "name": "articles",
      "outputs": [
        {
          "name": "",
          "type": "uint256"
        }
      ],
      "payable": false,
      "stateMutability": "view",
      "type": "function",
      "signature": "0xedcfafe6"
    },
    {
      "constant": true,
      "inputs": [
        {
          "name": "",
          "type": "address"
        }
      ],
      "name": "usernames",
      "outputs": [
        {
          "name": "",
          "type": "string"
        }
      ],
      "payable": false,
      "stateMutability": "view",
      "type": "function",
      "signature": "0xee91877c"
    },
    {
      "constant": true,
      "inputs": [
        {
          "name": "",
          "type": "address"
        },
        {
          "name": "",
          "type": "uint256"
        }
      ],
      "name": "articlesByAuthor",
      "outputs": [
        {
          "name": "",
          "type": "uint256"
        }
      ],
      "payable": false,
      "stateMutability": "view",
      "type": "function",
      "signature": "0xf0c0ab1f"
    },
    {
      "payable": false,
      "stateMutability": "nonpayable",
      "type": "fallback"
    },
    {
      "constant": false,
      "inputs": [
        {
          "name": "username",
          "type": "string"
        }
      ],
      "name": "setUsername",
      "outputs": [],
      "payable": false,
      "stateMutability": "nonpayable",
      "type": "function",
      "signature": "0xed59313a"
    },
    {
      "constant": false,
      "inputs": [],
      "name": "publishArticle",
      "outputs": [],
      "payable": false,
      "stateMutability": "nonpayable",
      "type": "function",
      "signature": "0x8bc8ec71"
    },
    {
      "constant": true,
      "inputs": [],
      "name": "fetchLatestArticle",
      "outputs": [
        {
          "name": "",
          "type": "uint256"
        }
      ],
      "payable": false,
      "stateMutability": "view",
      "type": "function",
      "signature": "0xffe1295a"
    }
  ],
  "bytecode": "0x608060405234801561001057600080fd5b5061063a806100206000396000f3fe608060405260043610610078576000357c0100000000000000000000000000000000000000000000000000000000900463ffffffff1680638bc8ec7114610087578063ed59313a1461009e578063edcfafe614610124578063ee91877c14610173578063f0c0ab1f1461023d578063ffe1295a146102ac575b34801561008457600080fd5b50005b34801561009357600080fd5b5061009c6102d7565b005b3480156100aa57600080fd5b50610122600480360360208110156100c157600080fd5b81019080803590602001906401000000008111156100de57600080fd5b8201836020820111156100f057600080fd5b8035906020019184600183028401116401000000008311171561011257600080fd5b909192939192939050505061036d565b005b34801561013057600080fd5b5061015d6004803603602081101561014757600080fd5b81019080803590602001909291905050506103c0565b6040518082815260200191505060405180910390f35b34801561017f57600080fd5b506101c26004803603602081101561019657600080fd5b81019080803573ffffffffffffffffffffffffffffffffffffffff1690602001909291905050506103e3565b6040518080602001828103825283818151815260200191508051906020019080838360005b838110156102025780820151818401526020810190506101e7565b50505050905090810190601f16801561022f5780820380516001836020036101000a031916815260200191505b509250505060405180910390f35b34801561024957600080fd5b506102966004803603604081101561026057600080fd5b81019080803573ffffffffffffffffffffffffffffffffffffffff16906020019092919080359060200190929190505050610493565b6040518082815260200191505060405180910390f35b3480156102b857600080fd5b506102c16104c3565b6040518082815260200191505060405180910390f35b60014390806001815401808255809150509060018203906000526020600020016000909192909190915055506000803373ffffffffffffffffffffffffffffffffffffffff1673ffffffffffffffffffffffffffffffffffffffff168152602001908152602001600020439080600181540180825580915050906001820390600052602060002001600090919290919091505550565b8181600260003373ffffffffffffffffffffffffffffffffffffffff1673ffffffffffffffffffffffffffffffffffffffff16815260200190815260200160002091906103bb929190610569565b505050565b6001818154811015156103cf57fe5b906000526020600020016000915090505481565b60026020528060005260406000206000915090508054600181600116156101000203166002900480601f01602080910402602001604051908101604052809291908181526020018280546001816001161561010002031660029004801561048b5780601f106104605761010080835404028352916020019161048b565b820191906000526020600020905b81548152906001019060200180831161046e57829003601f168201915b505050505081565b6000602052816000526040600020818154811015156104ae57fe5b90600052602060002001600091509150505481565b60008060016000803373ffffffffffffffffffffffffffffffffffffffff1673ffffffffffffffffffffffffffffffffffffffff168152602001908152602001600020805490500390506000803373ffffffffffffffffffffffffffffffffffffffff1673ffffffffffffffffffffffffffffffffffffffff1681526020019081526020016000208181548110151561055857fe5b906000526020600020015491505090565b828054600181600116156101000203166002900490600052602060002090601f016020900481019282601f106105aa57803560ff19168380011785556105d8565b828001600101855582156105d8579182015b828111156105d75782358255916020019190600101906105bc565b5b5090506105e591906105e9565b5090565b61060b91905b808211156106075760008160009055506001016105ef565b5090565b9056fea165627a7a7230582067478797563570f170b843f4e9453226edc57f52ac5f15adab1bf3b1e6d851f10029",
  "source": "pragma solidity >= 0.5.0;\n\ncontract Store {\n  \n  mapping (address => uint256[]) public articlesByAuthor;\n  uint256[] public articles;\n  mapping (address => string) public usernames;\n\n  function setUsername(string calldata username) external {\n    usernames[msg.sender] = username;\n  }\n  function publishArticle() external {\n    articles.push(block.number);\n    articlesByAuthor[msg.sender].push(block.number);\n  }\n\n function fetchLatestArticle() public view returns(uint256) {\n    uint length = articlesByAuthor[msg.sender].length - 1;\n    return articlesByAuthor[msg.sender][length];\n  }\n\n  function () external {\n  }\n}",
  "sourcePath": "/home/tft/Ethereum/storearticles/contracts/Store.sol",
  "compiler": {
    "name": "solc",
    "version": "0.5.0+commit.1d4f565a.Emscripten.clang"
  },
  "schemaVersion": "3.0.1",
  "updatedAt": "2019-06-11T07:40:33.485Z",
  "devdoc": {
    "methods": {}
  },
  "userdoc": {
    "methods": {}
  }
}