{
  "contractName": "Store",
  "abi": [
    {
      "constant": true,
      "inputs": [
        {
          "name": "",
          "type": "uint256"
        }
      ],
      "name": "articleArray",
      "outputs": [
        {
          "name": "",
          "type": "string"
        }
      ],
      "payable": false,
      "stateMutability": "view",
      "type": "function"
    },
    {
      "anonymous": false,
      "inputs": [],
      "name": "ArticleAddedInTransaction",
      "type": "event"
    },
    {
      "anonymous": false,
      "inputs": [
        {
          "indexed": false,
          "name": "id",
          "type": "uint256"
        }
      ],
      "name": "ArticleAddedInArray",
      "type": "event"
    },
    {
      "anonymous": false,
      "inputs": [
        {
          "indexed": false,
          "name": "content",
          "type": "string"
        }
      ],
      "name": "ArticleAddedInEvent",
      "type": "event"
    },
    {
      "constant": false,
      "inputs": [],
      "name": "inTransaction",
      "outputs": [],
      "payable": false,
      "stateMutability": "nonpayable",
      "type": "function"
    },
    {
      "constant": false,
      "inputs": [
        {
          "name": "content",
          "type": "string"
        }
      ],
      "name": "inArray",
      "outputs": [],
      "payable": false,
      "stateMutability": "nonpayable",
      "type": "function"
    },
    {
      "constant": false,
      "inputs": [
        {
          "name": "content",
          "type": "string"
        }
      ],
      "name": "inEvent",
      "outputs": [],
      "payable": false,
      "stateMutability": "nonpayable",
      "type": "function"
    }
  ],
  "bytecode": "0x608060405234801561001057600080fd5b506104e1806100206000396000f3fe608060405260043610610062576000357c0100000000000000000000000000000000000000000000000000000000900463ffffffff1680637fb14cf6146100675780638343aca81461011b578063c992c2c914610132578063fdd77a7f146101b8575b600080fd5b34801561007357600080fd5b506100a06004803603602081101561008a57600080fd5b810190808035906020019092919050505061023e565b6040518080602001828103825283818151815260200191508051906020019080838360005b838110156100e05780820151818401526020810190506100c5565b50505050905090810190601f16801561010d5780820380516001836020036101000a031916815260200191505b509250505060405180910390f35b34801561012757600080fd5b506101306102f9565b005b34801561013e57600080fd5b506101b66004803603602081101561015557600080fd5b810190808035906020019064010000000081111561017257600080fd5b82018360208201111561018457600080fd5b803590602001918460018302840111640100000000831117156101a657600080fd5b9091929391929390505050610327565b005b3480156101c457600080fd5b5061023c600480360360208110156101db57600080fd5b81019080803590602001906401000000008111156101f857600080fd5b82018360208201111561020a57600080fd5b8035906020019184600183028401116401000000008311171561022c57600080fd5b909192939192939050505061038e565b005b60008181548110151561024d57fe5b906000526020600020016000915090508054600181600116156101000203166002900480601f0160208091040260200160405190810160405280929190818152602001828054600181600116156101000203166002900480156102f15780601f106102c6576101008083540402835291602001916102f1565b820191906000526020600020905b8154815290600101906020018083116102d457829003601f168201915b505050505081565b7f92c959d26863f194d5f4217452f3d75b46f71d4f917f240723d0a49faa76fea360405160405180910390a1565b7fa2a745f65dcabea9cd2793a53a09ff38f8c91fe6aee4a93a0773372336387ab9828260405180806020018281038252848482818152602001925080828437600081840152601f19601f820116905080830192505050935050505060405180910390a15050565b7fb5898013143f263b799834c55e309f93b6d81812d6d6ae0db8377b48a17e5b3e6000805490506040518082815260200191505060405180910390a1600082829091806001815401808255809150509060018203906000526020600020016000909192939091929390919290919250919061040a929190610410565b50505050565b828054600181600116156101000203166002900490600052602060002090601f016020900481019282601f1061045157803560ff191683800117855561047f565b8280016001018555821561047f579182015b8281111561047e578235825591602001919060010190610463565b5b50905061048c9190610490565b5090565b6104b291905b808211156104ae576000816000905550600101610496565b5090565b9056fea165627a7a723058205cd3674ea62a26e622e8e316b8c6d214903b640aa2f0d63bf6a5065b7baec8850029",
  "source": "pragma solidity >=0.4.21 <0.6.0;\n\ncontract Store {\n  event ArticleAddedInTransaction();\n  event ArticleAddedInArray(uint id);\n  event ArticleAddedInEvent(string content);\n\n  string[] public articleArray;\n\n  function inTransaction() external {\n    emit ArticleAddedInTransaction();\n  }\n\n  function inArray(string calldata content) external  {\n    emit ArticleAddedInArray(articleArray.length);\n    articleArray.push(content);\n  }\n\n  function inEvent(string calldata content) external {\n    emit ArticleAddedInEvent(content);\n  }\n}",
  "sourcePath": "/home/deedee/Documents/storearticles/contracts/Store.sol",
  "compiler": {
    "name": "solc",
    "version": "0.5.0+commit.1d4f565a.Emscripten.clang"
  },
  "schemaVersion": "3.0.1",
  "updatedAt": "2019-05-06T17:40:47.914Z",
  "devdoc": {
    "methods": {}
  },
  "userdoc": {
    "methods": {}
  }
}